S00B00004C43442E7372656346
S11300000C94B1000C94CE000C94CE000C94CE0051
S11300100C94CE000C94CE000C94CE000C94CE0024
S11300200C94CE000C94CE000C94CE000C94CE0014
S11300300C94CE000C94CE000C94CE000C94CE0004
S11300400C94CE000C94CE000C94D9020C94CE00E7
S11300500C94CE000C94CE000C94CE000C94CE00E4
S11300600C94CE000C94CE0000407A10F35A00A0F9
S1130070724E18090010A5D4E80000E8764817006D
S113008000E40B54020000CA9A3B000000E1F505AD
S1130090000080969800000040420F000000A086F7
S11300A001000000102700000000E8030000000029
S11300B06400000000000A000000000001000000CD
S11300C000002C76D888DC674F0823DFC1DFAE59E7
S11300D0E1B1B796E5E3E453C63AE651997696E87A
S11300E0E6C28426EB898C9B62ED407C6FFCEFBCFE
S11300F09C9F40F2BAA56FA5F490055A2AF75C9329
S11301006B6CF9676DC11BFCE0E40D47FEF520E65E
S1130110B500D0ED902E0300943577050080841E41
S1130120080000204E0A000000C80C333333330F9C
S1130130986E12831141EF8D2114893BE65516CF39
S1130140FEE6DB18D1844B381BF77C1D901DA4BB45
S1130150E424203284725E228100C9F124ECA1E5FA
S11301603D2711241FBECFEFD8E0DEBFCDBF11E085
S1130170A0E0B1E0E0EBF4E102C005900D92AC33F5
S1130180B107D9F721E0ACE3B1E001C01D92AC3373
S1130190B207E1F70E9444030C94560A0C94000041
S11301A02A9A00C02A980895CF93C82F662311F085
S11301B0289A01C028982998249A259A269A279A39
S11301C02F982E982D982C98CC230CF42F9AC6FD9A
S11301D02E9AC5FD2D9AC4FD2C9A0E94D0002F980A
S11301E02E982D982C98C3FD2F9AC2FD2E9AC1FDEE
S11301F02D9AC0FD2C9A0E94D0002C9A2D9A2E9AEA
S11302002F9ACF910895882311F0289A01C0289835
S1130210299A24982598269827982A9A00C01C9BE6
S113022002C080E101C080E01D9980621E99806453
S11302301F9980682A9800C02A9A00C01C9981607E
S11302401D9982601E9984601F9988602A98089578
S113025080E00E9403018823DCF388E090E00197AA
S1130260F1F780E00E9403010895CF93C82F0E9404
S1130270280160E08C2F0E94D400CF910895611171
S113028004C080580E9435010895613021F48054DF
S11302900E9435010895623021F48C560E94350184
S11302A008958C520E943501089581E00E94350121
S11302B00895CF93C82F0E942801CA30A1F4843135
S11302C048F090EC980F943138F084518C3230F02F
S11302D080E005C080E403C084E101C084E5805867
S11302E00E94350104C061E08C2F0E94D400CF919C
S11302F00895CF93DF93EC012196FC01808188233C
S113030029F00E94590189918111FBCFDF91CF918E
S113031008951F93CF93DF93182F209A219A229A3E
S1130320249A259A269A279A80E09AEF0197F1F762
S11303302D9A2C9A0E94D00080E09EE40197F1F758
S11303400E94D000C0E0D1E0CE010197F1F70E94F5
S1130350D000CE010197F1F72C980E94D00021978C
S1130360F1F788E20E94350188E00E9435010E947D
S1130370550186E00E943501812F0E943501DF91ED
S1130380CF911F9108951092B9008CE08093B8002A
S1130390089594EA9093BC00ECEBF0E090819923EB
S11303A0ECF79091B900987F983011F09031A1F456
S11303B08093BB0084E88093BC00ECEBF0E0808188
S11303C08823ECF79091B900987F983139F081E057
S11303D0903429F480E0089581E0089580E0089540
S11303E0CF93DF93ECEBF0E024EAA9EBB0E0CBEBA6
S11303F0D0E034E844E9208390819923ECF79C9180
S1130400987F983011F09031B1F7888330839081D0
S11304109923ECF79C91987F903211F0983529F448
S11304204083908194FDFDCFE6CFDF91CF91089575
S11304300E94C901089584E98093BC00ECEBF0E0CC
S1130440808184FDFDCF08958093BB0084E8809370
S1130450BC00ECEBF0E080818823ECF79091B900CC
S1130460987F81E0983209F480E0089584EC8093C9
S1130470BC00ECEBF0E080818823ECF78091BB00BA
S1130480089584E88093BC00ECEBF0E0808188233D
S1130490ECF78091BB000895EF92FF920F931F93A6
S11304A0CF93DF938530910504F57C01C3E06C2F75
S11304B083E10E943F0180E091E00E947901C150F4
S11304C0B0F704E010E00E191F09053011056CF4B3
S11304D0C4E0D0E06C2F83E10E943F018FEF0E94C3
S11304E059012197C017D107ACF7DF91CF911F9124
S11304F00F91FF90EF9008958130910559F40E9477
S1130500550160E080E00E943F0182E091E00E949A
S1130510790108958230910559F40E94550160E0F3
S113052080E00E943F018EE091E00E9479010895ED
S11305308330910559F40E94550160E080E00E94E7
S11305403F0189E191E00E9479010895049751F4F3
S11305500E94550160E080E00E943F0189E291E041
S11305600E94790108951092C5008093C400E1ECC3
S1130570F0E088E080838081806980838EE08093CE
S1130580C2000895E0ECF0E0908195FFFDCF8093E8
S1130590C60008958AE00E94C2028DE00E94C20251
S11305A00895E0ECF0E080818823ECF78091C600A8
S11305B008951F920F920FB60F9211242F933F9319
S11305C04F935F936F937F938F939F93AF93BF9357
S11305D0EF93FF930E94D1020E94C202FF91EF9118
S11305E0BF91AF919F918F917F916F915F914F9147
S11305F03F912F910F900FBE0F901F9018951F934E
S1130600CF93DF93162FEA01880F0E94F001812F08
S11306100E9424028D2F0E94240281E0CD2B09F434
S113062080E00E9424020E941B02DF91CF911F915F
S11306300895CF93DF93D62FC82FCC0F8C2F0E9411
S1130640F0018D2F0E9424020E941B0281E08C0F76
S11306500E9418020E943602D82F0E944102C82F1D
S11306600E941B028C2F90E09D2BDF91CF91089567
S1130670CF93C82FAB0161E00E94FF0260E08C2F92
S11306800E941903CF910895CF93DF93CDB7DEB7BE
S113069068970FB6F894DEBF0FBECDBF8EE00E9400
S11306A0890180E48AB987B1897F87B987E088B9ED
S11306B00E94550117BC81E090E00E947C0284E016
S11306C090E00E944C0283EC84BD81E085BD81E30F
S11306D00E94B3020E94C301789488248394912CCD
S11306E06894CC24C2F8D12C55245A940F2EF9E3E3
S11306F0AF2EF1E0BF2EF02DCE0101963C017E011C
S113070099E1E90EF11C30991CC0E3E2F4EF319752
S1130710F1F700C00000F1E0CF1AD1081C141D0449
S113072054F087B590E0CF968C3F910524F057BCE8
S1130730C12CD12C03C087B5815C87BDC6010E9442
S11307404C0231991EC083E294EF0197F1F700C087
S113075000009FEFC91AD90AE4E0CE16D1045CF078
S113076087B590E0CF97049734F417BC6894CC24F1
S1130770C2F8D12C03C087B58F5387BDC6010E9430
S11307804C0232992AC083E294EF0197F1F700C03A
S113079000009FEF891A990AE5E08E1691041CF077
S11307A088248394912CC4010E947C02C6010E9477
S11307B04C0213C0F80181918F010E94C202E0161D
S11307C0F106C1F70E94CA0261E080E00E943F0185
S11307D0CE0141960E94790196CF63EE75EB88E4D1
S11307E00E9438038C011F938F93BF92AF927F9224
S11307F06F920E943A05B80160527109072E000CED
S1130800880B990B0E948E042AE939E94BE754E4DA
S11308100E941A048E010F5E1F4F23E030E044E073
S113082050E00E941A050F900F900F900F900F90B8
S11308300F90C0CF0E942E040C94E0040E94D904AF
S113084058F00E94D20440F029F45F3F29F00C9440
S1130850C90451110C9414050C94CF040E94F104A2
S113086068F39923B1F3552391F3951B550BBB27DB
S1130870AA2762177307840738F09F5F5F4F220F20
S1130880331F441FAA1FA9F335D00E2E3AF0E0E817
S113089032D091505040E695001CCAF72BD0FE2F61
S11308A029D0660F771F881FBB1F261737074807F5
S11308B0AB07B0E809F0BB0B802DBF01FF279358AD
S11308C05F4F3AF09E3F510578F00C94C9040C94A4
S11308D014055F3FE4F3983ED4F3869577956795C6
S11308E0B795F7959F5FC9F7880F911D96958795E2
S11308F097F90895E1E0660F771F881FBB1F621701
S113090073078407BA0720F0621B730B840BBA0BBE
S1130910EE1F88F7E0950895E89409C097FB3EF42C
S113092090958095709561957F4F8F4F9F4F992338
S1130930A9F0F92F96E9BB279395F69587957795B6
S11309406795B795F111F8CFFAF4BB0F11F460FF76
S11309501BC06F5F7F4F8F4F9F4F16C0882311F0CE
S113096096E911C0772321F09EE8872F762F05C0E2
S1130970662371F096E8862F70E060E02AF09A957D
S1130980660F771F881FDAF7880F9695879597F972
S1130990089597F99F6780E870E060E008959FEFFD
S11309A080EC089500240A94161617061806090602
S11309B0089500240A9412161306140605060895D1
S11309C0092E0394000C11F4882352F0BB0F40F459
S11309D0BF2B11F460FF04C06F5F7F4F8F4F9F4F99
S11309E0089557FD9058440F551F59F05F3F71F01B
S11309F04795880F97FB991F61F09F3F79F0879582
S1130A000895121613061406551FF2CF4695F1DF0A
S1130A1008C0161617061806991FF1CF869571059A
S1130A20610508940895E894BB2766277727CB01CE
S1130A3097F90895EF920F931F93CF93DF93E801F3
S1130A4047FD02C034E001C034E1042E000C550B14
S1130A5057FF03C0519541955109E32E022F242FCE
S1130A60AE010E943D07CE01DF91CF911F910F91FE
S1130A70EF900895AEE0B0E0E0E4F5E00C942D0AC8
S1130A800D891E8986E08C831A8309838FEF9FE783
S1130A909E838D83AE01475E5F4F6F89788DCE0153
S1130AA001960E945C05EF81F885E00FF11F10822A
S1130AB02E96E4E00C94490AABE0B0E0E2E6F5E0FF
S1130AC00C941F0A6C017B018A01FC0117821682B7
S1130AD0838181FFCCC1CE0101963C01F601938153
S1130AE0F70193FD859193FF81917F01882309F498
S1130AF0BAC1853239F493FD859193FF81917F01C9
S1130B00853229F4B60190E00E948509E7CF912C43
S1130B10212C312CFFE1F315D8F08B3279F038F425
S1130B20803279F08332A1F4232D20611DC08D32EF
S1130B3061F0803369F4232D216016C0832D826017
S1130B40382EE32DE4603E2E2AC0F32DF8601DC03C
S1130B5037FC2DC020ED280F2A3040F08E32B9F436
S1130B6036FC81C1232D2064322E19C036FE06C006
S1130B708AE0989E200D1124922E11C0EAE02E9E48
S1130B80200D1124222EF32DF0623F2E08C08C3646
S1130B9021F4832D8068382E02C0883641F4F70191
S1130BA093FD859193FF81917F018111B3CF982F9C
S1130BB09F7D9554933028F40C5F1F4F9FE39983D6
S1130BC00DC0833631F0833771F0833509F059C095
S1130BD021C0F801808189830E5F1F4F882483948C
S1130BE0912C530113C02801F2E04F0E511CF8015F
S1130BF0A080B18036FE03C0692D70E002C06FEFA3
S1130C007FEFC5010E947A094C018201F32DFF7721
S1130C103F2E16C0280122E0420E511CF801A0808C
S1130C20B18036FE03C0692D70E002C06FEF7FEF24
S1130C30C5010E946F094C01F32DF0683F2E82011B
S1130C4033FC1BC0822D90E088169906B0F4B601DF
S1130C5080E290E00E9485092A94F4CFF50137FCE4
S1130C60859137FE81915F01B60190E00E9485096C
S1130C7021102A9421E0821A91088114910471F7B9
S1130C80E8C0843611F0893641F5F80137FE07C013
S1130C9060817181828193810C5F1F4F08C06081E4
S1130CA07181072E000C880B990B0E5F1F4FF32DDB
S1130CB0FF763F2E97FF09C09095809570956195BA
S1130CC07F4F8F4F9F4FF0683F2E2AE030E0A30103
S1130CD00E94C109882E861845C0853731F4232D1A
S1130CE02F7EB22E2AE030E025C0932D997FB92EB5
S1130CF08F36C1F018F4883579F0B5C0803719F013
S1130D00883721F0B0C0E92FE061BE2EB4FE0DC0DB
S1130D10FB2DF460BF2E09C034FE0AC0292F2660C3
S1130D20B22E06C028E030E005C020E130E002C069
S1130D3020E132E0F801B7FE07C060817181828151
S1130D4093810C5F1F4F06C06081718180E090E049
S1130D500E5F1F4FA3010E94C109882E8618FB2D28
S1130D60FF773F2E36FE0DC0232D2E7FA22E891431
S1130D7058F434FE0BC032FC09C0832D8E7EA82E9D
S1130D8005C0B82CA32C03C0B82C01C0B92CA4FEF8
S1130D900FC0FE01E80DF11D8081803321F49A2DEE
S1130DA0997EA92E09C0A2FE06C0B394B39404C0D0
S1130DB08A2D867809F0B394A3FC11C0A0FE06C066
S1130DC0B21488F4280C922C9B180EC0B21460F450
S1130DD0B60180E290E00E948509B394F7CFB21483
S1130DE018F42B1802C0982C212CA4FE10C0B601B4
S1130DF080E390E00E948509A2FE17C0A1FC03C015
S1130E0088E790E002C088E590E0B6010CC08A2D26
S1130E10867859F0A1FE02C08BE201C080E2A7FCF3
S1130E208DE2B60190E00E948509891438F4B60178
S1130E3080E390E00E9485099A94F7CF8A94F301A5
S1130E40E80DF11D8081B60190E00E9485098110B2
S1130E50F5CF222009F442CEB60180E290E00E9450
S1130E6085092A94F6CFF6018681978102C08FEF17
S1130E709FEF2B96E2E10C943B0AA9E0B0E0E3E497
S1130E80F7E00C94250A6A01122FB02E2BE32017E9
S1130E9020F0FF24F394F00E02C02CE3F22E0F2D69
S1130EA027E0AE014F5F5F4F0E949708BC01498164
S1130EB0842F8970813031F0E1FC06C0E0FE06C069
S1130EC090E205C09DE203C09BE201C090E05E2D6C
S1130ED0507143FF3CC0911102C083E001C084E023
S1130EE0811718F4212F281B01C020E051110BC0D9
S1130EF0F601822F30E2882319F031938150FBCF21
S1130F00C20ED11C20E0992329F0D6019C93F6014E
S1130F1031966F01C6010396E2FE0AC03EE4D60193
S1130F203C9341E411964C93119712963C9306C05E
S1130F303EE6F601308341E641833283FC01322FE1
S1130F4040E2332309F442C041933150FACF42FFC7
S1130F5044C0911102C083E001C084E0811718F4F9
S1130F60212F281B01C020E051110BC0F601822F54
S1130F7030E2882319F031938150FBCFC20ED11C8B
S1130F8020E0992329F0D6019C93F60131966F0154
S1130F90C6010396E2FE0BC039E4D6013C933EE45D
S1130FA011963C93119736E412963C9307C039E6A8
S1130FB0F60130833EE6318336E63283FC01322F7C
S1130FC040E2332319F041933150FBCFFC01E20F8F
S1130FD0F11D10828EEF9FEFA6C021E030E0911149
S1130FE002C020E030E0161617061CF4FB0131960F
S1130FF002C0E1E0F0E02E0F3F1FBB2021F0EB2DFB
S1131000F0E0319602C0E0E0F0E02E0F3F1FE12F48
S1131010F0E02E173F071CF4121B212F01C020E023
S11310208E2D887159F4F601822F30E2882319F04D
S113103031938150FBCFC20ED11C20E0992329F0BB
S1131040D6019C93F60131966F0151110BC0F60144
S1131050822F90E3882319F091938150FBCFC20E25
S1131060D11C20E00F2D060F9A81342F307144FFDC
S113107003C0913309F40150101624F4093018F018
S113108008E001C001E0AB0177FF02C040E050E09E
S1131090FB01E41BF50BA1E0B0E0AC0FBD1FEA0FB0
S11310A0FB1F8EE2A82E4B01801A91080B2D10E035
S11310B01195019511094F3FBFEF5B0721F4D6014C
S11310C0AC9211966D01641775072CF08416950681
S11310D014F4818101C080E3415051093196D60155
S11310E011967D014017510724F0D6018C936701B6
S11310F0E2CF6417750739F4963320F4953319F465
S1131100311101C081E3F6018083F701822F90E25F
S1131110882319F091938150FBCFF701E20FF11D61
S1131120108280E090E02996ECE00C94410A28308B
S113113008F027E03327DA01990F311D87FD91600C
S113114000966105710539F432602E5F3D9330E3FA
S11311502A95E1F708959F3F30F0803871056105C5
S113116009F03C5F3C5F3D93913008F08068911D2D
S1131170DF93CF931F930F93FF92EF92192F987FD2
S11311809695E92F96959695E90FFF27EE53FF4F15
S113119099273327EE24FF24A701E701059008943B
S11311A0079428F4360FE71EF81E491F511D660FD9
S11311B0771F881F991F0694A1F70590079428F4B8
S11311C0E70EF81E491F561FC11D770F881F991F70
S11311D0661F0694A1F70590079428F4F80E491F9A
S11311E0561FC71FD11D880F991F661F771F0694AE
S11311F0A1F70590079420F4490F561FC71FD81F65
S1131200990F661F771F881F0694A9F7849110957C
S1131210177041F0D695C79557954795F794E7947D
S11312201A95C1F7E8E6F0E06894159015913591A8
S11312306591959105907FE27395E118F10A430B4E
S1131240560BC90BD009C0F7E10CF11E431F561F02
S1131250C91FD01D7EF4703311F48A95E6CFE8944B
S1131260015030F0080F0AF40027021708F4202F69
S11312702395022F7A3328F079E37D932A95E9F7B1
S113128010C07D932A9589F60694979567953795AE
S113129017951794E118F10A430B560BC90BD009A3
S11312A098F023957E9173957A3308F070E37C93DC
S11312B02013B8F77E9170617D9330F0839571E3CC
S11312C07D9370E32A95E1F71124EF90FF900F913D
S11312D01F91CF91DF91992787FD90950895FC0187
S11312E00590615070400110D8F7809590958E0F4D
S11312F09F1F0895FC016150704001900110D8F7C0
S1131300809590958E0F9F1F08950F931F93CF93F1
S1131310DF93FB01238121FD03C08FEF9FEF2CC0DE
S113132022FF16C046815781248135814217530715
S113133044F4A081B1819D012F5F3F4F318320830D
S11313408C93268137812F5F3F4F3783268314C0C8
S11313508B01EC01FB010084F185E02D0995892BBB
S1131360E1F6D80116968D919C91179701961796E0
S11313709C938E931697CE01DF91CF911F910F917D
S11313800895FA01AA27283051F1203181F1E89417
S11313906F936E7F6E5F7F4F8F4F9F4FAF4FB1E064
S11313A03ED0B4E03CD0670F781F891F9A1FA11D5F
S11313B0680F791F8A1F911DA11D6A0F711D811D60
S11313C0911DA11D20D009F468943F912AE0269F25
S11313D011243019305D3193DEF6CF010895462F84
S11313E04770405D4193B3E00FD0C9F7F6CF462F65
S11313F04F70405D4A3318F0495D31FD40524193CE
S113140002D0A9F7EACFB4E0A6959795879577958A
S11314106795BA95C9F700976105710508959B0111
S1131420AC010A2E06945795479537952795BA959A
S1131430C9F7620F731F841F951FA01D08952F9273
S11314403F924F925F926F927F928F929F92AF9250
S1131450BF92CF92DF92EF92FF920F931F93CF939D
S1131460DF93CDB7DEB7CA1BDB0B0FB6F894DEBF34
S11314700FBECDBF09942A88398848885F846E845A
S11314807D848C849B84AA84B984C884DF80EE80A4
S1131490FD800C811B81AA81B981CE0FD11D0FB6AD
S11314A0F894DEBF0FBECDBFED010895F894FFCFD1
S11314B020004D6F64653A205628444329004D4F5F
S11314C044453A5628414329004D4F44453A526514
S11314D073697374616E6365004D4F44453A436F9D
S10F14E06E74696E7569747900256400EF
S9030000FC
