S00B00004C43442E7372656346
S11300000C9434000C9449000C9449000C9449005D
S11300100C9449000C9449000C9449000C94490038
S11300200C9449000C9449000C9449000C94490028
S11300300C9449000C9449000C9449000C94490018
S11300400C9449000C9449000C9449000C94490008
S11300500C9449000C9449000C9449000C944900F8
S11300600C9449000C94490011241FBECFEFD8E032
S1130070DEBFCDBF11E0A0E0B1E0E6E2F4E002C0F3
S113008005900D92AA33B107D9F70E94A5010C94EB
S113009011020C9400002A9A00C02A980895CF9364
S11300A0C82F662311F0289A01C028982998249A09
S11300B0259A269A279A2F982E982D982C98CC23F7
S11300C00CF42F9AC6FD2E9AC5FD2D9AC4FD2C9AC8
S11300D00E944B002F982E982D982C98C3FD2F9A90
S11300E0C2FD2E9AC1FD2D9AC0FD2C9A0E944B0090
S11300F02C9A2D9A2E9A2F9ACF910895882311F035
S1130100289A01C02898299A2498259826982798EF
S11301102A9A00C01C9B02C080E101C080E01D99A6
S113012080621E9980641F9980682A9800C02A9A68
S113013000C01C9981601D9982601E9984601F997A
S113014088602A98089580E00E947E008823DCF36A
S113015088E090E00197F1F780E00E947E00089526
S1130160CF93C82F0E94A30060E08C2F0E944F0001
S1130170CF910895611104C080580E94B000089581
S1130180613021F480540E94B0000895623021F45B
S11301908C560E94B00008958C520E94B0000895BD
S11301A081E00E94B0000895CF93C82F0E94A3005D
S11301B0CA30A1F4843148F090EC980F943138F0AF
S11301C084518C3230F080E005C080E403C084E1C7
S11301D001C084E580580E94B00004C061E08C2F07
S11301E00E944F00CF910895CF93DF93EC012196A5
S11301F0FC018081882329F00E94D4008991811117
S1130200FBCFDF91CF9108951F93CF93DF93182FE6
S1130210209A219A229A249A259A269A279A80E04B
S11302209AEF0197F1F72D9A2C9A0E944B0080E0E7
S11302309EE40197F1F70E944B00C0E0D1E0CE01AB
S11302400197F1F70E944B00CE010197F1F72C982A
S11302500E944B002197F1F788E20E94B00088E0E9
S11302600E94B0000E94D00086E00E94B000812F5E
S11302700E94B000DF91CF911F910895EF92FF92F9
S11302800F931F93CF93DF938530910504F57C0181
S1130290C3E06C2F83E10E94BA0080E091E00E94E9
S11302A0F400C150B0F704E010E00E191F09053046
S11302B011056CF4C4E0D0E06C2F83E10E94BA0015
S11302C08FEF0E94D4002197C017D107ACF7DF91BC
S11302D0CF911F910F91FF90EF9008958130910578
S11302E059F40E94D00060E080E00E94BA0082E0ED
S11302F091E00E94F40008958230910559F40E941F
S1130300D00060E080E00E94BA008EE091E00E949C
S1130310F40008958330910559F40E94D00060E000
S113032080E00E94BA0089E191E00E94F4000895FF
S1130330049751F40E94D00060E080E00E94BA006B
S113034089E291E00E94F40008958EE00E94040185
S113035080E48AB987B1897F87B987E088B90E9428
S1130360D00017BC81E090E00E946E0184E090E030
S11303700E943E0183EC84BD81E085BD01E010E074
S1130380C4E0D0E0FF24FA9430991AC083E294EFD9
S11303900197F1F700C0000021971C161D0654F0C8
S11303A087B590E0CF968C3F910524F0F7BCC0E070
S11303B0D0E003C087B5815C87BDCE010E943E01B9
S11303C0319919C083E294EF0197F1F700C000005E
S11303D02196C430D1054CF087B590E0CF970497AF
S11303E024F417BCC4E0D0E003C087B58F5387BDA5
S11303F0CE010E943E013299C7CF83E294EF019768
S1130400F1F700C000000F5F1F4F0530110514F015
S113041001E010E0C8010E946E01CE010E943E017D
S1090420B3CFF894FFCFF6
S113042620004D6F64653A205628444329004D4FF9
S113043644453A5628414329004D4F44453A5265AE
S113044673697374616E6365004D4F44453A436F37
S10D04566E74696E75697479000014
S9030000FC
