S00B00004C43442E7372656346
S11300000C9434000C9451000C9451000C94510045
S11300100C94B3010C9451000C9451000C945100B5
S11300200C9451000C9451000C9451000C94510008
S11300300C9451000C9451000C9451000C945100F8
S11300400C9451000C9451000C9499020C9451009E
S11300500C9451000C9451000C9451000C945100D8
S11300600C9451000C94510011241FBECFEFD8E022
S1130070DEBFCDBF11E0A0E0B1E0E2E8F5E002C0F0
S113008005900D92AC33B107D9F721E0ACE3B1E0B0
S113009001C01D92A634B207E1F70E9462020C94DB
S11300A0BF020C9400002A9A00C02A980895CF93A6
S11300B0C82F662311F0289A01C028982998249AF9
S11300C0259A269A279A2F982E982D982C98CC23E7
S11300D00CF42F9AC6FD2E9AC5FD2D9AC4FD2C9AB8
S11300E00E9453002F982E982D982C98C3FD2F9A78
S11300F0C2FD2E9AC1FD2D9AC0FD2C9A0E94530078
S11301002C9A2D9A2E9A2F9ACF910895882311F024
S1130110289A01C02898299A2498259826982798DF
S11301202A9A00C01C9B02C080E101C080E01D9996
S113013080621E9980641F9980682A9800C02A9A58
S113014000C01C9981601D9982601E9984601F996A
S113015088602A98089580E00E9486008823DCF352
S113016088E090E00197F1F780E00E94860008950E
S1130170CF93C82F0E94AB0060E08C2F0E945700E1
S1130180CF910895611104C080580E94B800089569
S1130190613021F480540E94B8000895623021F443
S11301A08C560E94B80008958C520E94B80008959D
S11301B081E00E94B8000895CF93C82F0E94AB003D
S11301C0CA30A1F4843148F090EC980F943138F09F
S11301D084518C3230F080E005C080E403C084E1B7
S11301E001C084E580580E94B80004C061E08C2FEF
S11301F00E945700CF910895CF93DF93EC0121968D
S1130200FC018081882329F00E94DC0089918111FE
S1130210FBCFDF91CF9108951F93CF93DF93182FD6
S1130220209A219A229A249A259A269A279A80E03B
S11302309AEF0197F1F72D9A2C9A0E94530080E0CF
S11302409EE40197F1F70E945300C0E0D1E0CE0193
S11302500197F1F70E945300CE010197F1F72C9812
S11302600E9453002197F1F788E20E94B80088E0C9
S11302700E94B8000E94D80086E00E94B800812F36
S11302800E94B800DF91CF911F9108951092B90098
S11302908CE08093B8000895EF92FF920F931F9320
S11302A0CF93DF938530910504F57C01C3E06C2F77
S11302B083E10E94C20082E091E00E94FC00C150F0
S11302C0B0F704E010E00E191F09053011056CF4B5
S11302D0C4E0D0E06C2F83E10E94C2008FEF0E9443
S11302E0DC002197C017D107ACF7DF91CF911F91A4
S11302F00F91FF90EF9008958130910559F40E9479
S1130300D80060E080E00E94C20084E091E00E9496
S1130310FC0008958230910559F40E94D80060E0F1
S113032080E00E94C20080E191E00E94FC000895F8
S11303308330910559F40E94D80060E080E00E9467
S1130340C2008BE191E00E94FC000895049751F4EF
S11303500E94D80060E080E00E94C2008BE291E03D
S11303600E94FC0008951F920F920FB60F92112461
S11303702F933F934F935F936F937F938F939F93A9
S1130380AF93BF93EF93FF93309929C083E294EF27
S11303900197F1F700C000008091000190910101E4
S11303A001971816190674F027B530E0215C3F4F09
S11303B02C3F31053CF010920101109200018FEFA7
S11303C087BD07C0909301018093000187B5815CCC
S11303D087BD80910001909101010E944C013199E7
S11303E02AC083E294EF0197F1F700C000008091E6
S11303F00001909101010196843091057CF027B5AC
S113040030E02F5331092430310544F484E090E086
S1130410909301018093000117BC07C090930101E0
S11304208093000187B58F5387BD8091000190911F
S113043001010E944C01329925C083E294EF019797
S1130440F1F700C0000080914401909145010196AC
S1130450853091052CF4909345018093440106C0A6
S113046081E090E0909345018093440180914401A0
S1130470909145010E947C018091000190910101BD
S11304800E944C01FF91EF91BF91AF919F918F9189
S11304907F916F915F914F913F912F910F900FBE7C
S11304A00F901F9018951092C5008093C400E1EC42
S11304B0F0E088E080838081806980838EE080938F
S11304C0C20008958CE00E940C0180E48AB987B1CF
S11304D0897F87B9CFE0C8B90E94D80082E08093B1
S11304E06800C0936C0017BC81E090E00E947C011E
S11304F080910001909101010E944C0183EC84BD24
S113050081E085BD81E30E9453020E9446017894F4
S1130510FFCFE0ECF0E0908195FFFDCF8093C60023
S11305200895E0ECF0E080818823ECF78091C60028
S113053008951F920F920FB60F9211242F933F9399
S11305404F935F936F937F938F939F93AF93BF93D7
S1130550EF93FF930E9491020E948902FF91EF9111
S1130560BF91AF919F918F917F916F915F914F91C7
S11305703F912F910F900FBE0F901F901895F894F4
S1050580FFCFA7
S1130582040020004D6F64653A2056284443290034
S11305924D4F44453A5628414329004D4F44453A6C
S11305A2526573697374616E6365004D4F44453AD5
S10F05B2436F6E74696E75697479000003
S9030000FC
