S00B00004C43442E7372656346
S11300000C9434000C9449000C9449000C9449005D
S11300100C9449000C9449000C9449000C94490038
S11300200C9449000C9449000C9449000C94490028
S11300300C9449000C9449000C9449000C94490018
S11300400C9449000C9449000C9449000C94490008
S11300500C9449000C9449000C9449000C944900F8
S11300600C9449000C94490011241FBECFEFD8E032
S1130070DEBFCDBF11E0A0E0B1E0E2E9F3E002C0F1
S113008005900D92AA31B107D9F70E9464010C942E
S1130090C7010C9400002A9A00C02A980895CF93AF
S11300A0C82F662311F0289A01C028982998249A09
S11300B0259A269A279A2F982E982D982C98CC23F7
S11300C00CF42F9AC6FD2E9AC5FD2D9AC4FD2C9AC8
S11300D00E944B002F982E982D982C98C3FD2F9A90
S11300E0C2FD2E9AC1FD2D9AC0FD2C9A0E944B0090
S11300F02C9A2D9A2E9A2F9ACF910895882311F035
S1130100289A01C02898299A2498259826982798EF
S11301102A9A00C01C9B02C080E101C080E01D99A6
S113012080621E9980641F9980682A9800C02A9A68
S113013000C01C9981601D9982601E9984601F997A
S113014088602A98089580E00E947E008823DCF36A
S113015088E090E00197F1F780E00E947E00089526
S1130160CF93C82F0E94A30060E08C2F0E944F0001
S1130170CF910895611104C080580E94B000089581
S1130180613021F480540E94B0000895623021F45B
S11301908C560E94B00008958C520E94B0000895BD
S11301A081E00E94B0000895CF93C82F0E94A3005D
S11301B0CA30A1F4843148F090EC980F943138F0AF
S11301C084518C3230F080E005C080E403C084E1C7
S11301D001C084E580580E94B00004C061E08C2F07
S11301E00E944F00CF910895CF93DF93EC012196A5
S11301F0FC018081882329F00E94D4008991811117
S1130200FBCFDF91CF9108951F93CF93DF93182FE6
S1130210209A219A229A249A259A269A279A80E04B
S11302209AEF0197F1F72D9A2C9A0E944B0080E0E7
S11302309EE40197F1F70E944B00C0E0D1E0CE01AB
S11302400197F1F70E944B00CE010197F1F72C982A
S11302500E944B002197F1F788E20E94B00088E0E9
S11302600E94B0000E94D00086E00E94B000812F5E
S11302700E94B000DF91CF911F9108950F931F93B7
S1130280CF9386309105E4F48C01CBE064E08C2FAD
S11302900E94BA0080E091E00E94F400CF5FC03178
S11302A0A9F71016110664F4055FCBE064E08C2F07
S11302B00E94BA008FEF0E94D400CF5F0C13F6CFD8
S11302C0CF911F910F9108958EE00E94040187B190
S11302D0897F87B983E088B90E94D00064E08BE00D
S11302E00E94BA008FEF0E94D40064E08CE00E9468
S11302F0BA008FEF0E94D40064E08DE00E94BA003F
S11303008FEF0E94D40064E08EE00E94BA008FEF69
S11303100E94D40064E08FE00E94BA008FEF0E9434
S1130320D40060E080E00E94BA0082E091E00E9484
S1130330F40064E080E00E94BA008EE091E00E9444
S1130340F400C5E0D0E0309910C083E294EF019747
S1130350F1F700C00000C130D10511F0219702C0AF
S1130360C5E0D0E0CE010E943E013199ECCF83E29A
S113037094EF0197F1F700C000002196C630D10533
S113038014F0C5E0D0E0CE010E943E01DCCFF89429
S1050390FFCF99
S113039220004869206920616D204C434400427268
S10D03A2696768746E6573733A00AE
S9030000FC
